{
  "contractName": "Election",
  "abi": [
    {
      "constant": true,
      "inputs": [],
      "name": "candidatesCount",
      "outputs": [
        {
          "name": "",
          "type": "uint256"
        }
      ],
      "payable": false,
      "stateMutability": "view",
      "type": "function",
      "signature": "0x2d35a8a2"
    },
    {
      "constant": true,
      "inputs": [
        {
          "name": "",
          "type": "uint256"
        }
      ],
      "name": "candidates",
      "outputs": [
        {
          "name": "id",
          "type": "uint256"
        },
        {
          "name": "name",
          "type": "string"
        },
        {
          "name": "voteCount",
          "type": "uint256"
        }
      ],
      "payable": false,
      "stateMutability": "view",
      "type": "function",
      "signature": "0x3477ee2e"
    },
    {
      "constant": true,
      "inputs": [
        {
          "name": "",
          "type": "address"
        }
      ],
      "name": "voters",
      "outputs": [
        {
          "name": "",
          "type": "bool"
        }
      ],
      "payable": false,
      "stateMutability": "view",
      "type": "function",
      "signature": "0xa3ec138d"
    },
    {
      "inputs": [],
      "payable": false,
      "stateMutability": "nonpayable",
      "type": "constructor",
      "signature": "constructor"
    },
    {
      "anonymous": false,
      "inputs": [
        {
          "indexed": true,
          "name": "_candidateId",
          "type": "uint256"
        }
      ],
      "name": "votedEvent",
      "type": "event",
      "signature": "0xfff3c900d938d21d0990d786e819f29b8d05c1ef587b462b939609625b684b16"
    },
    {
      "constant": false,
      "inputs": [
        {
          "name": "_s1",
          "type": "string"
        },
        {
          "name": "_s2",
          "type": "string"
        }
      ],
      "name": "compareString",
      "outputs": [
        {
          "name": "",
          "type": "bool"
        }
      ],
      "payable": false,
      "stateMutability": "nonpayable",
      "type": "function",
      "signature": "0x75b83187"
    },
    {
      "constant": false,
      "inputs": [
        {
          "name": "_candidateId",
          "type": "uint256"
        }
      ],
      "name": "vote",
      "outputs": [],
      "payable": false,
      "stateMutability": "nonpayable",
      "type": "function",
      "signature": "0x0121b93f"
    }
  ],
  "bytecode": "0x608060405234801561001057600080fd5b5061005e6040805190810160405280600b81526020017f43616e64696461746520310000000000000000000000000000000000000000008152506100b0640100000000026401000000009004565b6100ab6040805190810160405280600b81526020017f43616e64696461746520320000000000000000000000000000000000000000008152506100b0640100000000026401000000009004565b6102ea565b6000600190505b600254811115156101a1576101886000808381526020019081526020016000206001018054600181600116156101000203166002900480601f01602080910402602001604051908101604052809291908181526020018280546001816001161561010002031660029004801561016e5780601f106101435761010080835404028352916020019161016e565b820191906000526020600020905b81548152906001019060200180831161015157829003601f168201915b50505050508361021e640100000000026401000000009004565b15151561019457600080fd5b80806001019150506100b7565b5060026000815480929190600101919050555060606040519081016040528060025481526020018281526020016000815250600080600254815260200190815260200160002060008201518160000155602082015181600101908051906020019061020d929190610245565b506040820151816002015590505050565b60006060839050606083905080805190602001208280519060200120149250505092915050565b828054600181600116156101000203166002900490600052602060002090601f016020900481019282601f1061028657805160ff19168380011785556102b4565b828001600101855582156102b4579182015b828111156102b3578251825591602001919060010190610298565b5b5090506102c191906102c5565b5090565b6102e791905b808211156102e35760008160009055506001016102cb565b5090565b90565b6105d7806102f96000396000f3fe60806040526004361061006d576000357c0100000000000000000000000000000000000000000000000000000000900463ffffffff1680630121b93f146100725780632d35a8a2146100ad5780633477ee2e146100d857806375b831871461019a578063a3ec138d14610311575b600080fd5b34801561007e57600080fd5b506100ab6004803603602081101561009557600080fd5b810190808035906020019092919050505061037a565b005b3480156100b957600080fd5b506100c261049c565b6040518082815260200191505060405180910390f35b3480156100e457600080fd5b50610111600480360360208110156100fb57600080fd5b81019080803590602001909291905050506104a2565b6040518084815260200180602001838152602001828103825284818151815260200191508051906020019080838360005b8381101561015d578082015181840152602081019050610142565b50505050905090810190601f16801561018a5780820380516001836020036101000a031916815260200191505b5094505050505060405180910390f35b3480156101a657600080fd5b506102f7600480360360408110156101bd57600080fd5b81019080803590602001906401000000008111156101da57600080fd5b8201836020820111156101ec57600080fd5b8035906020019184600183028401116401000000008311171561020e57600080fd5b91908080601f016020809104026020016040519081016040528093929190818152602001838380828437600081840152601f19601f8201169050808301925050505050505091929192908035906020019064010000000081111561027157600080fd5b82018360208201111561028357600080fd5b803590602001918460018302840111640100000000831117156102a557600080fd5b91908080601f016020809104026020016040519081016040528093929190818152602001838380828437600081840152601f19601f820116905080830192505050505050509192919290505050610564565b604051808215151515815260200191505060405180910390f35b34801561031d57600080fd5b506103606004803603602081101561033457600080fd5b81019080803573ffffffffffffffffffffffffffffffffffffffff16906020019092919050505061058b565b604051808215151515815260200191505060405180910390f35b600160003373ffffffffffffffffffffffffffffffffffffffff1673ffffffffffffffffffffffffffffffffffffffff16815260200190815260200160002060009054906101000a900460ff161515156103d357600080fd5b6000811180156103e557506002548111155b15156103f057600080fd5b60018060003373ffffffffffffffffffffffffffffffffffffffff1673ffffffffffffffffffffffffffffffffffffffff16815260200190815260200160002060006101000a81548160ff02191690831515021790555060008082815260200190815260200160002060020160008154809291906001019190505550807ffff3c900d938d21d0990d786e819f29b8d05c1ef587b462b939609625b684b1660405160405180910390a250565b60025481565b6000602052806000526040600020600091509050806000015490806001018054600181600116156101000203166002900480601f0160208091040260200160405190810160405280929190818152602001828054600181600116156101000203166002900480156105545780601f1061052957610100808354040283529160200191610554565b820191906000526020600020905b81548152906001019060200180831161053757829003601f168201915b5050505050908060020154905083565b60006060839050606083905080805190602001208280519060200120149250505092915050565b60016020528060005260406000206000915054906101000a900460ff168156fea165627a7a7230582017e41ca910cb22fc7fe54f314eefa57d886fce32753195a75bba12d6764793860029",
  "source": "pragma solidity ^0.5.0;\r\n\r\ncontract Election {\r\n\tstruct Candidate {\r\n\t\tuint id;\r\n\t\tstring name;\r\n\t\tuint voteCount;\r\n\t}\r\n\r\n\tevent votedEvent (\r\n\t\tuint indexed _candidateId\r\n\t);\r\n\t//addr\r\n\tmapping(uint => Candidate) public candidates;\r\n\tmapping(address => bool) public voters;\r\n\r\n\tuint public candidatesCount;\r\n\t//uint public voteTotal;\r\n\r\n\tconstructor() public {\r\n\t\taddCandidate(\"Candidate 1\");\r\n\t\taddCandidate(\"Candidate 2\");\r\n\t}\r\n\r\n\tfunction compareString(string memory _s1, string memory _s2) public returns (bool) {\r\n\t\tbytes memory s1 = bytes(_s1);\r\n\t\tbytes memory s2 = bytes(_s2);\r\n\t\treturn keccak256(s1) == keccak256(s2);\r\n\t}\r\n\r\n\tfunction addCandidate (string memory _name) private {\r\n\t\t//vérifier doublons\r\n\t\t/*\r\n\t\tbool doublons = false;\r\n\t\tfor(uint i=1; i<=candidatesCount; i++){\r\n\t\t\tif(keccak256(string(candidates[i].name)) == keccak256(_name)){\r\n\t\t\t\tdoublons = true;\r\n\t\t\t}\r\n\t\t}\r\n\t\t*/\r\n\t\tfor(uint i=1; i<=candidatesCount; i++){\r\n\t\t\trequire(!compareString(string(candidates[i].name), _name));\r\n\t\t}\r\n\t\tcandidatesCount ++;\r\n\t\tcandidates[candidatesCount] = Candidate(candidatesCount, _name, 0);\r\n\t}\r\n\r\n\tfunction vote (uint _candidateId) public {\r\n\t\trequire(!voters[msg.sender]);\r\n\t\trequire(_candidateId > 0 && _candidateId <= candidatesCount);\r\n\t\tvoters[msg.sender] = true;\r\n\t\tcandidates[_candidateId].voteCount ++;\r\n\t\t//voteTotal++;\r\n\t\temit votedEvent(_candidateId);\r\n\t}\r\n\r\n}",
  "sourcePath": "D:/ESGI5/blockchain/election/contracts/Election.sol",
  "compiler": {
    "name": "solc",
    "version": "0.5.0+commit.1d4f565a.Emscripten.clang"
  },
  "schemaVersion": "3.0.1",
  "updatedAt": "2019-02-02T18:45:08.256Z",
  "devdoc": {
    "methods": {}
  },
  "userdoc": {
    "methods": {}
  }
}